:100000000C942A000C9447000C9447000C94470071
:100010000C9447000C9447000C9447000C94470044
:100020000C9447000C9447000C9447000C94470034
:100030000C9447000C9447000C9447000C94470024
:100040000C9447000C9447000C9447000C94470014
:100050000C94470011241FBECFE5D8E0DEBFCDBF12
:1000600010E0A0E6B0E0E0E3F7E002C005900D92FA
:10007000AA38B107D9F710E0AAE8B0E001C01D9294
:10008000AB38B107E1F70E944A030C9496030C9435
:100090000000DF93CF93CDB7DEB7EAE3F0E08FE067
:1000A0008083E7E3F0E08FEF8083E4E3F0E08FE02C
:1000B0008083E1E3F0E08FEF8083ABE3B0E0EBE33C
:1000C000F0E08081982FEAE3F0E080818095892339
:1000D0008C93A8E3B0E0E8E3F0E08081982FE7E3B9
:1000E000F0E08081809589238C93A5E3B0E0E5E37F
:1000F000F0E08081982FE4E3F0E08081809589230F
:100100008C93A2E3B0E0E2E3F0E08081982FE1E39A
:10011000F0E08081809589238C93CF91DF910895C1
:10012000DF93CF9300D000D0CDB7DEB78A837C8336
:100130006B8381E089838A81843010F019820FC03B
:100140008A81882F90E0880F991FFC01E759FF4FA3
:100150000190F081E02D8081EB81FC818083898199
:100160000F900F900F900F90CF91DF910895DF9334
:10017000CF9300D00F92CDB7DEB78A836B8381E037
:1001800089838A81843010F019820DC08A81882F7A
:1001900090E0880F991FFC01EF59FF4F0190F0810B
:1001A000E02D8B81808389810F900F900F90CF91EC
:1001B000DF910895DF93CF9300D000D000D0CDB76A
:1001C000DEB78C837E836D8381E08B838C81877027
:1001D0008A838C8186958695869589838C818032E9
:1001E00010F01B821CC08981882F90E0880F991F16
:1001F000FC01E759FF4F0190F081E02D8081282F0D
:1002000030E08A81882F90E0A90102C0559547957A
:100210008A95E2F7CA018170ED81FE8180838B812E
:1002200026960FB6F894DEBF0FBECDBFCF91DF91FB
:100230000895DF93CF9300D000D00F92CDB7DEB7F3
:100240008C836D8381E08B838C8187708A838C8122
:1002500086958695869589838C81803210F01B82E5
:1002600032C08981882F90E0880F991FFC01EF59D7
:10027000FF4FA081B1818981882F90E0880F991F5D
:10028000FC01EF59FF4F0190F081E02D8081482F54
:100290008A81282F30E081E090E002C0880F991F0A
:1002A0002A95E2F7809548238D81282F30E08A81B6
:1002B000882F90E0B90102C0660F771F8A95E2F798
:1002C000CB01842B8C938B810F900F900F900F900C
:1002D0000F90CF91DF910895DF93CF9300D000D09E
:1002E0000F92CDB7DEB78C836D8381E08B838C81D9
:1002F00087708A838C8186958695869589838C8183
:10030000803210F01B8232C08981882F90E0880FE4
:10031000991FFC01EF58FF4FA081B1818981882F7F
:1003200090E0880F991FFC01EF58FF4F0190F0817A
:10033000E02D8081482F8A81282F30E081E090E0F5
:1003400002C0880F991F2A95E2F7809548238D8176
:10035000282F30E08A81882F90E0B90102C0660F13
:10036000771F8A95E2F7CB01842B8C938B810F90BA
:100370000F900F900F900F90CF91DF910895DF9322
:10038000CF9300D00F92CDB7DEB78A836B8381E025
:1003900089838A81843010F019820DC08A81882F68
:1003A00090E0880F991FFC01EF58FF4F0190F081FA
:1003B000E02D8B81808389810F900F900F90CF91DA
:1003C000DF910895DF93CF9300D000D000D0CDB758
:1003D000DEB78C837E836D8381E08B838C81877015
:1003E0008A838C8186958695869589838C818032D7
:1003F00010F01B821CC08981882F90E0880F991F04
:10040000FC01EF58FF4F0190F081E02D8081282FF3
:1004100030E08A81882F90E0A90102C05595479568
:100420008A95E2F7CA018170ED81FE8180838B811C
:1004300026960FB6F894DEBF0FBECDBFCF91DF91E9
:100440000895DF93CF9300D000D0CDB7DEB78A8375
:100450007C836B8381E089838A81843010F01982E8
:100460000FC08A81882F90E0880F991FFC01EF58F8
:10047000FF4F0190F081E02D8081EB81FC81808332
:1004800089810F900F900F900F90CF91DF91089579
:10049000DF93CF9300D000D000D0CDB7DEB78C83F0
:1004A0001B821A8219829E012D5F3F4F8C81B901F8
:1004B0000E94DA008B81813021F58981823320F41A
:1004C00089818F5F89830BC08981823341F49E01CA
:1004D0002D5F3F4F8C81B9010E94DA0019828B8118
:1004E000282F30E03E832D838D819E81009741F03F
:1004F0002D813E812130310521F481E08A8301C0C4
:100500001A828A8126960FB6F894DEBF0FBECDBF41
:10051000CF91DF910895DF93CF9300D000D00F9259
:10052000CDB7DEB71D821C821B821A8219821D8202
:1005300041C01C820DC08C81882F90E0FC01E758DF
:10054000FF4F808160E00E9419018C818F5F8C8356
:100550008C81843080F38D81882F90E0FC01E758F6
:10056000FF4F808161E00E9419011B821DC08B81B9
:10057000882F90E0FC01E358FF4F80810E944802E1
:1005800089838981813069F48D81882F90E0880F7B
:10059000991F880F991F982F8B81890F8F5F8093E8
:1005A00060008B818F5F8B838B81843000F38D8122
:1005B0008F5F8D838D81843008F4BBCF8091600084
:1005C0000F900F900F900F900F90CF91DF910895A3
:1005D000DF93CF9300D0CDB7DEB78A83198219821B
:1005E0000DC08981882F90E0FC01EF57FF4F80817B
:1005F00060E00E94190189818F5F8983898184303D
:1006000080F38A81882361F480918A00882F90E0AA
:10061000FC01EF57FF4F808161E00E9419010EC07D
:100620008A81813059F480918A00882F90E0FC0102
:10063000EB57FF4F808161E00E94190180918A0091
:100640008F5F80938A0080918A00837080938A00F4
:100650000F900F90CF91DF910895DF93CF930F927A
:10066000CDB7DEB7198219820EC08981992787FD1F
:100670009095FC01EB57FF4F808160E00E941901CB
:1006800089818F5F8983898184307CF30F90CF913A
:10069000DF910895DF93CF9300D000D0CDB7DEB7C0
:1006A0001C821B821A8219820E9449000E948B02BE
:1006B0008C838C81282F30E080E491E0B9010E9486
:1006C0006F03CB018B838A818F5F8A839A818B81B1
:1006D000981760F382E06C810E94B700E7CF97FB28
:1006E000092E07260AD077FD04D00CD006D00020B2
:1006F0001AF4709561957F4F0895F6F7909581955E
:100700009F4F0895AA1BBB1B51E107C0AA1FBB1F27
:10071000A617B70710F0A61BB70B881F991F5A958D
:10072000A9F780959095BC01CD010895F894FFCF6D
:10073000013B00380035003200390036003300300C
:10074000003A0037003400310000010203040506BE
:0A075000071A1B191818191B1A00CC
:00000001FF
